:020000040000fa
:080000000002040000000000f2
:020000040000fa
:10000800aa360000aa360000aa360000aa36000068
:10001800aa360000aa360000aa360000aa36000058
:10002800aa360000aa360000aa36000006310000f1
:10003800aa360000aa360000aa360000aa36000038
:10004800aa360000aa360000aa360000aa36000028
:10005800aa360000aa360000aa360000aa36000018
:10006800aa360000aa360000aa360000aa36000008
:10007800aa360000aa360000aa360000aa360000f8
:10008800aa360000aa360000aa360000aa360000e8
:10009800aa360000aa360000aa360000aa360000d8
:1000a800aa360000aa360000aa360000aa360000c8
:1000b800aa360000aa360000aa360000aa360000b8
:1000c800aa360000aa360000aa360000aa360000a8
:1000d800aa360000aa360000aa360000aa36000098
:1000e800aa360000aa360000aa360000aa36000088
:1000f800aa360000aa360000aa360000aa36000078
:10010800aa360000aa360000aa360000aa36000067
:10011800aa360000aa360000aa360000aa36000057
:10012800aa360000aa360000aa360000aa36000047
:10013800aa360000aa360000aa360000aa36000037
:10014800aa360000aa360000aa360000aa36000027
:10015800aa360000aa360000aa360000aa36000017
:10016800aa360000aa360000aa360000aa36000007
:10017800aa360000aa360000aa360000aa360000f7
:10018800aa360000aa360000aa360000aa360000e7
:10019800aa360000aa360000aa360000aa360000d7
:1001a800aa360000aa360000aa360000aa360000c7
:1001b800aa360000aa360000aa360000aa360000b7
:1001c800aa360000aa360000aa360000aa360000a7
:1001d800aa360000aa360000aa360000aa36000097
:1001e800aa360000aa360000aa360000aa36000087
:0801f800aa360000aa3600003f
:020000040000fa
:10020800aa360000aa360000aa360000aa36000066
:10021800aa360000aa360000aa360000aa36000056
:10022800aa360000aa360000aa36000006310000ef
:10023800aa360000aa360000aa360000aa36000036
:10024800aa360000aa360000aa360000aa36000026
:10025800aa360000aa360000aa360000aa36000016
:10026800aa360000aa360000aa360000aa36000006
:10027800aa360000aa360000aa360000aa360000f6
:10028800aa360000aa360000aa360000aa360000e6
:10029800aa360000aa360000aa360000aa360000d6
:1002a800aa360000aa360000aa360000aa360000c6
:1002b800aa360000aa360000aa360000aa360000b6
:1002c800aa360000aa360000aa360000aa360000a6
:1002d800aa360000aa360000aa360000aa36000096
:1002e800aa360000aa360000aa360000aa36000086
:1002f800aa360000aa360000aa360000aa36000076
:10030800aa360000aa360000aa360000aa36000065
:10031800aa360000aa360000aa360000aa36000055
:10032800aa360000aa360000aa360000aa36000045
:10033800aa360000aa360000aa360000aa36000035
:10034800aa360000aa360000aa360000aa36000025
:10035800aa360000aa360000aa360000aa36000015
:10036800aa360000aa360000aa360000aa36000005
:10037800aa360000aa360000aa360000aa360000f5
:10038800aa360000aa360000aa360000aa360000e5
:10039800aa360000aa360000aa360000aa360000d5
:1003a800aa360000aa360000aa360000aa360000c5
:1003b800aa360000aa360000aa360000aa360000b5
:1003c800aa360000aa360000aa360000aa360000a5
:1003d800aa360000aa360000aa360000aa36000095
:1003e800aa360000aa360000aa360000aa36000085
:0803f800aa360000aa3600003d
:020000040000fa
:10040000cfdd21000e7f22000e01880000000000d9
:10041000000020000000e000020032000001200087
:100420002002880014000700ba0007000000e00066
:1004300003003a00a0ae20000100200002003700b7
:100440000000200001002000810f70000100320038
:1004500014000700000020000000e000020032004d
:100460000000020000000000201802000000000050
:100470000040da000000fe004440a90020052000f2
:100480000000e0000300320000002000a00188000e
:100490004440a800000006008a1f78008b1f7800e7
:1004a0000000060091018800800478000000eb0045
:1004b0001a003700e284440032a0b4009905ba0063
:1004c000e284440032a0b4009906ba00e2844400f9
:1004d00032a0b4000006eb00476fde00fd07b2005b
:1004e000636ce10003003a00ebff07000000eb0043
:1004f0000a003700606ce10004003a00005deb0088
:100500008b05e900fdff3e00040037006168e10053
:10051000010032000086eb000b00070019c7ba008b
:100520001905ba000e04e00003003a000a00e000da
:10053000e0ff3a0000000600fe07b2009e018800be
:100540008a047800f5ff3700395dba008b05e900b1
:100550000c003200295dba008b05e900080032006a
:100560000c00e00003003a00e284440032a0b40032
:10057000f5ff370019ddba008b05e900faff3a00f4
:100580008904e800e184440032a0b40000000600c1
:10059000d0340400000000008a3304000000000092
:1005a0005e3504000000000070350400000000000b
:1005b00082350400000000009435040000000000b3
:1005c000a635040000000000b8350400000000005b
:1005d000ca35040000000000dc3504000000000003
:1005e0000a00fa00e20f50001f003e00d0ee80002b
:1005f000e10f500006003200802320004523200038
:1006000023232000042320000000e00004003a001f
:1006100080222000452220002322200004222000e6
:10062000060028009403630002003a0007087800df
:10063000140a730013a8a30001003a0013a0a0003d
:1006400002007800050037001388a300feff320087
:100650003102fb00840a78000000e9000000e0009d
:10066000f9ff3a000800370033002000b3bf9f00b5
:10067000c0bf9f00d1bf9f00e2bf9f006a805700ac
:10068000930307006fb99700020078000080fa001a
:100690000000060099a0a90001e6a90089a0a90010
:1006a000000006000e26ef00e702620099a0a900f4
:1006b000f6f82f0089a0a900c42add00a70b2000ae
:1006c000970b630068026200003088004322de005e
:1006d00011308800610262006230880006007800f4
:1006e000233088004d22dd00ba00b6000080720081
:1006f000d0058800f0ff2d009800b60000007200c1
:10070000c004880001e6a800000006002030880030
:100710000000060000000500e68747008e1f7800f5
:10072000d0bf9f00e1bf9f000e0037005fba970067
:1007300014407800efb99700934078000201e90077
:10074000814f5000040032000080fb008180fb00dc
:10075000010050000600370066875700041fe800bc
:10076000030fe8000200e000f0ff3a000000eb0099
:100770004f0778006f00b10000000600800178008c
:1007800002003700b15978000201e9000200e000e0
:10079000fcff3a00000006008001780002003700ec
:1007a000815978000201e9000200e000fcff3a00f4
:1007b000000006000c00fa00889fbe0000047800cc
:1007c000f0ff2700d0bf9f008004eb0099bf9f007f
:1007d00088bf9f00a8bf9f00200c2000b0bf9f00d3
:1007e00078815700cfb09700708057001000070045
:1007f0000fb89700094878008fb89700088050001c
:100800004f04be000080fa0000000600d0019000f6
:10081000028151004240a900030034001001780019
:10082000014978000208e800010078000000060095
:10083000f6874700889fbe008a9fbe008c9fbe003f
:100840008e1f780000057800a1b79f00020778008e
:100850008004eb0090023700afb097008100e80001
:10086000a1b79f0051c2b300814f500003003a006e
:10087000afb097000004eb0011003700ba00900001
:100880000000fb000168a3000700320009017800a6
:10089000800078000a007800dcff07000000e0001c
:1008a00005003a007c0237008a00780086020700c3
:1008b000e10f4000780232008904e8007602370038
:1008c0000100780031417800d3c2b300834f51005a
:1008d0000c00320007003c00edc15100834f510075
:1008e0000a003200ebc14100834f51000d003a0075
:1008f0000800370003c3b300834f510009003a00da
:10090000060037000830a000edff37000800a00007
:10091000ebff37000810a000e9ff37000820a00017
:10092000e7ff37000818a300010032000800a1000b
:100930000838a300010032000820a1008200fb005b
:100940000103b100e98f50000c003e000001780067
:100950008000eb006a08b900b201fb000303b1009c
:1009600080804100020078009201fb000303b10087
:10097000e98f5100f7ff3600060037008000eb00da
:10098000a3c2b300834f510002003a00ce007800aa
:100990000000e8008005eb00e2c2b300904f1100b8
:1009a00009003a0008e0a00064415100d04f110056
:1009b00003003200000178000102780006003700d1
:1009c000ce0578000000e80000017800090037003b
:1009d0006a58b9008085410002007800b201fb002e
:1009e0000303b100e98f5100f9ff3600840078005d
:1009f000f5ff370032407800a2b79f00c3c6b300ae
:100a0000834f5000250032000f003c0032c6b30077
:100a1000824f50008800320004003c000004e000d7
:100a2000220232006b4151000f00370042c6b30072
:100a3000824f50001700320065414100824f500044
:100a400094003a001300370032c7b300824f5000c1
:100a50001b00320007003c0064415100824f5000ef
:100a6000100032000241e800824f500089003a0035
:100a70000f00370052c7b300824f50008a00320087
:100a800063414100824f500082003a00e0df9f0046
:100a900009003700e0df9f00850037000840a00014
:100aa000d4ff3700e0df9f000860a000800037001f
:100ab000e0df9f000850a0000870a0007c00370015
:100ac000e0df9f004e007800000678000000e000a4
:100ad00001003a008cc721000c0178000000eb00f7
:100ae000010037000000e800e24178000304e00064
:100af000fcff3a00800678000b00e00003003200a3
:100b00008d8f5500010031008b0678008005eb00c9
:100b10008d8f5000010036008d8550006804640000
:100b20002a003a00110037003a0090000068a30044
:100b30000700320009017800010220000a00780055
:100b400032ff07000000e00006003a000600370010
:100b50008a00780000022000db010700e10f40005e
:100b6000010032008904e8008b05e9000b00e00079
:100b7000edff3a008085eb00140037003a0090004a
:100b80000068a300090032000c007800b000fb00f0
:100b900000067800090178000a0078001bff0700b2
:100ba0000000e00008003a00080037008c007800e0
:100bb0003100fb00010678008a007800c2010700be
:100bc000e10f4000010032008904e8000d007800c8
:100bd0008006e9000000e000e8ff3a000800e000bd
:100be000ad013200110037003a0090000068a30008
:100bf0000700320009017800010220000a00780095
:100c000002ff07000000e00006003a00060037007f
:100c10008a00780000022000ab010700e10f4000cd
:100c2000010032008904e8008b05e9000b00e000b8
:100c3000edff3a00980137004e017800cf91de00b9
:100c4000c81ade004818dd004812de0004027000f9
:100c5000e4df9f000848a300080032000404e0001d
:100c600006003200e14f420004003200f4df9f0032
:100c700082e79f002d00200002003700f2df9f0076
:100c80001d002000e2fd2f000f0141000206e800d8
:100c900099ff3700e0df9f00ecfd2f000f064600b4
:100ca0001d00200094ff3700e0df9f00080cb30018
:100cb00008017800020cb200700064000200e0003d
:100cc0000d003a000000e000020032004e06be00b7
:100cd000020037004e067800cfe6de00e00f560037
:100ce000e08f5e000a003d003800b3006006160089
:100cf000e0861e00060037000000e000020032001f
:100d00004e06be00020037004e0678008006eb005b
:100d10000b00e00005003a008c8576000bf0a70080
:100d20008b05ea008b05e900cf5dde0088017800c5
:100d3000030cb200e3b79f0000042000808f510035
:100d40002300320003003c000300e00008003200f2
:100d50002d003700000820006fb29700800f52006e
:100d60000d003200000c2000800f520026003a00d7
:100d700002c8210010c0b30064014100b20f560048
:100d8000a28f5e001f0039000040e800ea4f5000cb
:100d9000f9ff3a001b00370010c0b3000201200029
:100da00003002000820f5600838f5e00150039007b
:100db000441add00cc11de00830172004411dd0015
:100dc0000040e800e84f5000f6ff3a000d00370001
:100dd00010c0b3008200200003002000820f5600e4
:100de000838f5e0007003900431add00cd11de005d
:100df000830172004311dd000040e800eb4f50001a
:100e0000f6ff3a00e0df9f006fd997000200fb0079
:100e10008b0f500002003d00ebdf9f000300370006
:100e2000808f550001003d00800578000100e00042
:100e30000300320063006400010032008100e90019
:100e400008e8a300050032008b8f50000200340038
:100e50008b805000010037008000eb00efd9970035
:100e60000300fb000002eb00d4b79f00808f50000e
:100e70000200340000805000d0b79f000828a30073
:100e800040003200610164000818a3000f00320026
:100e90003a0090000068a30006003200b102200072
:100ea0000200e000010032008180e80009017800c2
:100eb0000d003700b00220000200e0000100320007
:100ec0000080e8008a0078000e0037000200e00091
:100ed000100032003a0090000068a30007003200c2
:100ee00009017800010220000a00780047fe07008f
:100ef0000000e00006003a00060037008a00780093
:100f000000022000f0000700e10f40000100320065
:100f10008904e8005fb097000000e0005a0032004a
:100f2000bcb79f00cdb79f00800678003a009000c4
:100f30000068a300070032000901780001032000c7
:100f40000a00780031fe07000000e00006003a00c9
:100f5000060037008a00780000032000da0007004e
:100f6000e10f4000010032008904e8008d06e9002d
:100f7000eeff3a00ddb79f003fb69700cfb697006f
:100f800041003700dfb197000300e0001a00320093
:100f90000838a30018003a00bcb79f00cdb79f00e7
:100fa000830678003a0090000068a3000700320032
:100fb00009017800010220000a00780013fe0700f2
:100fc0000000e00006003a00060037008a007800c2
:100fd00000022000bc000700e10f400001003200c9
:100fe0008904e8008d06e900eeff3a00ddb79f00b6
:100ff0003fb69700cfb69700610164000818a300c0
:101000000f0032003a0090000068a3000600320092
:10101000b10220000200e000010032008180e800ff
:10102000090178000d003700b00220000200e00046
:10103000010032000080e8008a0078000e003700ce
:101040000200e000100032003a0090000068a300a7
:101050000700320009017800010220000a00780030
:10106000eafd07000000e00006003a000600370035
:101070008a0078000002200093000700e10f400082
:10108000010032008904e8000b03e9006330b90075
:1010900000017800b2b79f004233dd0000c8210094
:1010a000000343008e01780093b79f000807780083
:1010b000060478005c0037008b05e900000420007e
:1010c0006fb29700800f52003800320003003c00de
:1010d0000400e000080032003e0037000008200055
:1010e000efb09700808f500020003200000c2000ed
:1010f000808f500037003a000e48a30010003200e5
:101100001802be000401be000c00be00f4b79f0030
:1011100085bf9f00f0000700e0df9f000000fb009c
:10112000cf80de007fb297008fba97000401be0027
:10113000f90007000006560081865e0007003700b0
:1011400018017800110009000286d800a2002000d2
:10115000110009000280d800e1df9f006fd99700dd
:101160000243b000e2df9f001a00370070c6210082
:101170000e58a3000100320060c5210001c8210003
:10118000810054000c01be008100e900030033001f
:101190008301d1000281d300fbff3700ef00610023
:1011a000e0c07800e1df9f000a0037000c00be00bd
:1011b000bfb197008301e900030033008100d10033
:1011c0000080d300fbff3700674060000043b000a1
:1011d000e0df9f00ba0090006fda97000400fb0088
:1011e0000168a30007003200090178008000780040
:1011f0000a00780085fd07000000e00005003a00c5
:10120000050037008a0078002f000700e10f40003a
:10121000010032008904e8003fb0970063005000ed
:10122000b0b79f00640454000b00e000a2ff3a0036
:101230000e0478001fb797000838a300160032008c
:10124000dfb097000100e0001300340001047800d3
:101250003a0090000068a3000700320009017800fe
:10126000010220000a00780068fd07000000e0008d
:1012700006003a00060037008a00780000022000cd
:1012800011000700e10f4000010032008904e8006e
:101290000804e900eeff3a002fb1970012407800f1
:1012a000e0df9f000004e0006bfd3a0009007800d9
:1012b0004f0778004f06be004f05be004f04be002a
:1012c0006f01b10000000600889fbe000104780095
:1012d000b80090008084eb000118a3003a003200af
:1012e000180190000198a30002003a000200e000fb
:1012f00035003a000190a000310498008004780085
:10130000f90fb2000200e00002003a00280090004d
:10131000000c7800ea8f540005003a000178a30021
:1013200003003a0088007800d0002000e6ff0700a4
:1013300018009000d8009000810f50000b00320080
:101340000000e800100498001800780009487800b0
:10135000000ce80011c0b30040dd21000148780016
:10136000ea8f540018003a00050037008800780022
:101370000940780017000700800478001200370049
:10138000380090000088a3000f0032001801900080
:10139000a80090004800900091fc07009800900081
:1013a000810f500004003200380090000003b300a9
:1013b000300498008084eb000000eb0010049800db
:1013c00028009000000c7800090078004f04be004f
:1013d000000006000200fa00889fbe00a0ff9f00e8
:1013e00001047800380090000068a30033003a0040
:1013f000e200600005003a000003b30030049800ea
:10140000110498000080eb002e003700d8049000f3
:101410000900e00006003a0012002000e6805700b4
:10142000480090006efc0700190498002300370064
:10143000a80090000100e00008003a0071dd2100e2
:1014400021049800010c780021002000510498002c
:10145000110498000030a00030049800180190009a
:10146000a8009000480090005dfc07002800900054
:101470008080eb0011049800aff8970001487800d5
:10148000000ce8002ff89700ea4f50000b003a00dc
:10149000380090000088a300080032001801900076
:1014a000a8009000480090004dfc07000000eb00f1
:1014b00010049800a8009000010c7800aff8970085
:1014c0000100fb004f04be000080fa00000006008f
:1014d00000c0da00000006006022b800060220000a
:1014e0000000d0008180d2000482d2008582d20028
:1014f0000000a0000202520083825a000300310063
:101500000202420083824a000000a1000603e900b3
:10151000f3ff3a0000000600020ab900001bb90000
:101520000200b80081004200810043000000060074
:020000040000fa
:101530001111000022220000333300004444000057
:101540005555000066660000777700008888000027
:1015500099990000aaaa0000bbbb0000cccc0000f7
:10156000dddd0000eeee0000cecd0000acab0000f3
:10157000494400004c45000000a50000a5a500005e
:10158000a5a50000a5a50000a5a50000a5a5000033
:10159000a5a50000a5a50000a5a50000a5a5000023
:1015a000a5000000312000000025000064000000bc
:1015b000322000000033000000340000003500003d
:1015c0000036000000370000003900000025000050
:0415d00063000000b4
:020000040000fa
:1015d400560800000014000000000000000800008d
:1015e40002000000000000000208000002000000e9
:1015f40000000000040800000200000002000000d7
:10160400ef000000060800000200000000000000d7
:10161400a81c000028000000000000008e1d00002f
:101624000a00000000000000981d00000a000000ed
:101634000000000008080000020000000000000094
:101644000a0800000200000000000000a21d0000c3
:101654000a00000000000000ac1d00000a000000a9
:10166400000000000c080000020000000000000060
:101674000e08000002000000000000001008000036
:101684000200000000000000120800000200000038
:101694000000000014080000020000000000000028
:1016a40016080000020000000000000018080000f6
:1016b40002000000000000001a0800000200000000
:1016c400000000001c0800000200000000000000f0
:1016d4001e0800000200000000000000f61c0000cc
:1016e4001400000000000000b61d00000a00000005
:1016f40000000000c01d00000a00000000000000ff
:101704002008000002000000000000002208000081
:101714000200000000000000ca1d00000a000000d2
:101724000000000024080000020000000000000087
:101734002608000002000000000000002808000045
:1017440002000000000000002a080000020000005f
:10175400000000002c08000002000000000000004f
:101764002e08000002000000000000003008000005
:1017740002000000000000000a1d0000120000002a
:101784000000000032080000020000000000000019
:1017940034080000020000000000000036080000c9
:1017a40002000000000000003808000002000000f1
:1017b40002000000030000002e1d000010000000c5
:1017c400000000003a0800000200000000000000d1
:1017d4003c08000002000000000000003e1d000064
:1017e40010000000000000003e080000020000009d
:1017f400000000004008000002000000000000009b
:101804004e1d00001000000000000000420800000f
:101814000200000000000000440800000200000074
:10182400000000005e1d0000100000000000000029
:101834004608000002000000000000004808000004
:1018440002000000000000006e1d000010000000f7
:10185400000000004a080000020000000000000030
:101864004c08000002000000000000007e1d000083
:1018740010000000000000004e08000002000000fc
:1018840000000000500800000200000000000000fa
:101894001c1d00001200000000000000520800009f
:1018a40002000000000000005408000002000000d4
:1018b40000000000561c000052000000020000005e
:1018c4003031320033343500363738003941420084
:1018d400434445004600300031323300343536008d
:1018e40037383900616263006465660000286e0061
:1018f400756c6c002900000001000000000a000063
:101904000000640000000000e8030000001027004d
:101914000000a0008601000040420f0000809600f5
:1019240098000000e1f5050000ca9a003b000000a1
:10193400d01c00002600000002000000d51d00009d
:1019440000d51d000900000000020000d71d0000a2
:1019540000d71d000e02010000000000000000007e
:10196400000000000602020000000000d01c00007d
:10197400d41d00000600000000000000da1d000075
:10198400020000000200000001000000000000004e
:020000040000fa
:101994001200fa0050079800610798007207980037
:1019a400030f98000000eb00000f7800de009000a9
:1019b400110798000100370000000000ac13070075
:1019c4001e009000600890000000e0003500320026
:1019d4001e009000b000900021079800ee009000d7
:1019e4001e009000071007000e0890000000e000a1
:1019f4001a003a001e009000600890008000e90080
:101a04001e009000610898001e00900010007800ed
:101a14000000e00004003a00eb13070080007800a7
:101a24001e009000110098001e00900040009000dd
:101a34000000e000180032001e0090006800400022
:101a44006a0c0700e10f500013003a00262c020034
:101a540000000000000000000f0037001e0090008e
:101a6400ae009000310098001e0090001008900015
:101a74000000e000080032001e00900072004000e8
:101a84005a0c07000000e00003003200262c02007c
:101a940000000000000000004b13070010002000ad
:101aa400460037007e0090000000e00003003a008a
:101ab400451307000000eb00400037001e007800cb
:101ac4000000e00004003a0066004700d31307005a
:101ad40010002000000f78003b1307007214070069
:101ae400631307001e00900010109000e10f4000e7
:101af40003003a001e0090008000eb0011109800d3
:101b04001e00900020109000e10f400003003a00f6
:101b14001e0090008000eb00211098002a1307009b
:101b2400ee00470066004700670c07000000e00075
:101b34001e003a001e009000951207000000e0000d
:101b4400160032001e009000100078000000e00033
:101b540005003a00461307001e0090001000900094
:101b6400380b070018130700fe0090001e009000b9
:101b740072004000081107001e009000aa0b070025
:101b8400870607000000e0008bff3a00262c0200c5
:101b9400000000000000000088ff37001e009000d5
:101ba400a10b07007e06070084ff37001e0090008b
:101bb4009d0b07007a0607000000eb000080fa0086
:041bc4000000060017
:020000040000fa
:101bc8001400fa004007980052079800630798002d
:101bd80071079800040f9800150f98001000200056
:101be800000f7800ce009000110798000000eb006d
:101bf800200798000e0890000000e0000500320061
:101c08001e009000b0109000201090000e09900067
:101c18000089be001e009000401190003207980015
:101c28001e00900021002000411098007e009000c6
:101c3800e20f500017003200e20f500005003e008e
:101c48000000e0002e003200e10f500006003200d4
:101c58002c003700e30f500017003200e40f50004b
:101c68001b003200270037001e0090002011900052
:101c7800b01190005e009000ee009000000071002e
:101c8800818071001e019000201198003111980088
:101c98001c0037001e009000b0109000201090002b
:101ca80061004000e08048001e019000201198006b
:101cb80031119800130037001e0090005e0190005b
:101cc800ee01900022109800331098000d003700a4
:101cd8003e009000e20f5000060032001e00900007
:101ce8005e019000ee0190002210980033109800d9
:101cf800040037000000eb00000f780001003700f7
:101d0800000000003e009000e10f50002a003a0059
:101d1800f04080000000e00016003a001e0090002d
:101d28000080e800ef0e07001e009000b008900049
:101d380080408000808f5000030036001e00900015
:101d480030089000804088001e0090000081e80064
:101d58001e009000300890006a00b90080007800ea
:101d680080ca21000080400082007800a70f070089
:101d7800050037001e0090006c00400080007800cd
:101d880020da2100a10f07001e009000b008900083
:101d98003040800030089000808f500006003600e8
:101da8001e0890000000e000030032001e089000aa
:101db80011002000010878001e0078000080fa0059
:041dc8000000060011
:020000040000fa
:101dcc001000fa003007980042079800530798005b
:101ddc00610798007407980010002000000f78002d
:101dec00be009000110798009f1207007e00900023
:101dfc000000e000050032001e009000b0109000c2
:101e0c00201090007e0190000089be001e00900002
:101e1c0040119000220798001e0090002100200025
:101e2c00411098006e009000e20f50001700320035
:101e3c00e20f500005003e000000e0002e003200d2
:101e4c00e10f5000060032002c003700e30f500069
:101e5c0017003200e40f50001b003200270037003f
:101e6c001e00900020119000b01190004e009000c8
:101e7c00de00900000007100818071001e01900056
:101e8c0020119800311198001c0037001e009000a2
:101e9c00b01090002010900061004000e0804800dd
:101eac001e0190002011980031119800130037008a
:101ebc001e0090004e019000de0190002210980050
:101ecc00331098000d0037002e009000e20f5000e8
:101edc00060032001e0090004e019000de019000c2
:101eec002210980033109800040037000000eb001b
:101efc00000f780001003700000000002e00900059
:101f0c00e10f50001e003a001e0090000080e80017
:101f1c00730e07001e009000b008900080408000f7
:101f2c00808f5000030036001e0090003008900097
:101f3c00804088001e0090000081e8001e00900088
:101f4c00300890006a00b9008000780080ca210037
:101f5c0000804000820078002b0f07001e009000cc
:101f6c00b00890003040800030089000808f500006
:101f7c0003003600262c02000000000000000000c8
:101f8c000f1207001e0078000080fa000000060007
:020000040000fa
:101f9c001600fa0030079800410798005207980085
:101fac006307980074079800050f9800160f9800a7
:101fbc00270f98009e0890005e009000f70d070018
:101fcc00100798001e0090000000e0004f00320047
:101fdc001e009000c0089000210798001e00900081
:101fec00c00890005e0090000000e9000000400076
:101ffc00808040001e009000710898005e029000e6
:10200c00ae0990007e019000ce0090001e00900062
:10201c00820807006e019000be0090002e00900018
:10202c00f7050700800078001e009000010878007a
:10203c000e0890000000e000030032000e08900033
:10204c009e00900001087800071207006040800095
:10205c000000e80060408800304080000000e00094
:10206c0007003a009e0090003140880060408000dc
:10207c00e10f50000c003a003a0f07000a0037003d
:10208c00904080000000e00007003a0030408000e3
:10209c00b00890007e009000808f500002003e003f
:1020ac009e00900031408800d04080000000e80085
:1020bc00d04088001e009000b00890008040800046
:1020cc00808f5000030036001e00900030089000f6
:1020dc00804088001e0090000081e8001e009000e7
:1020ec00300890006a00b9008000780080ca210096
:1020fc000080400082007800c30e07001000200012
:10210c00000f7800ae110700020037000080eb00d2
:10211c00000f78001e007800e10f50000b003a0011
:10212c00904080000000e000080032003040800049
:10213c00b00890007e009000808f500003003100aa
:10214c00262c020000000000000000001e00780099
:08215c000080fa0000000600fb
:020000040000fa
:102164001200fa005007980061079800720798005f
:10217400030f98000000eb00000f7800de009000d1
:10218400110798000100370000000000b811070093
:102194001e009000e00890001e009000700890005f
:1021a400808f5000030039000e089000e20f5000a9
:1021b4001b003a000e099000ee0090001e009000f3
:1021c400df020700200798001e009000100890000e
:1021d4000000e000090032001e0090007200400080
:1021e400820a0700e10f50000a003a00262c020080
:1021f4000000000000000000060037002e009000e0
:102204000000e00003003200262c02000000000061
:10221400000000006c110700100020003d00370092
:102224007e0090000000e00003003a006611070001
:102234000000eb00370037001e0078000000e000cb
:1022440004003a0066004700f41107001000200063
:10225400000f78005c110700931207008411070037
:102264001e00900010109000e10f400003003a009f
:102274001e0090008000eb00111098001e009000da
:1022840020109000e10f400003003a001e0090006f
:102294008000eb00211098004b110700ee0047006e
:1022a40066004700880a07000000e00015003a00b5
:1022b4001e009000931007000000e0000d003200a3
:1022c400fe0090001e00900068004000320f0700de
:1022d4001e009000d4090700b10407000000e000cc
:1022e400a9ff3a00262c02000000000000000000b4
:1022f400a6ff37001e009000cb090700a8040700c2
:10230400a2ff37001e009000c7090700a4040700bd
:0c2314000000eb000080fa000000060052
:020000040000fa
:102320000a00fa000000eb00000f7800f040800087
:102330000000e0005e003a00704080000000e8000d
:102340007040880071408000110798001e009000c6
:102350000000e0000a003a00414080002107980098
:102360005040800040408800ae00900051408800fe
:10237000c04080000000e800c040880074100700e2
:10238000e04080009e009000808f50003c003900ab
:10239000010037000000000040408000100078007d
:1023a0000000e00003003a000080eb00e0408800fd
:1023b0003300370040408000300090003000900033
:1023c000300798003e009000900090004107980070
:1023d0009e0090004e009000808f5000030031005e
:1023e000ce009000e1408800250037003e009000bc
:1023f0000080e8003d0d07003e009000200890009e
:102400000000e000030032003e0090006c0040003d
:10241000360d07003e009000b0089000804080001c
:10242000808f5000030036003e009000300890007e
:10243000804088003e0090000081e8003e0090004f
:10244000300890006a00b9008000780080ca21003e
:102450000080400082007800ee0d07003e009000f2
:10246000b00890003040800030089000808f50000d
:10247000c8ff390010002000000f7800c6ff3700a9
:1024800030408000300890006a00b9008000780079
:1024900080ca21000080400010007800e10f500049
:1024a0000600360010002000000f780003003700ff
:1024b000a04080000000e800a0408800b0408000fc
:1024c0000000e0000200320010002000000f780041
:0c24d0001e0078000080fa0000000600ea
:020000040000fa
:1024dc001800fa0070079800010f9800120f98006e
:1024ec00230f9800340f9800fe00900021079800ed
:1024fc000000eb00100798000000eb00300798007c
:10250c00e71107002e00900090007800410798001a
:10251c002e0990008e0890004e009000650e07006a
:10252c00500798005e0090000000e0000f003200a1
:10253c00ce009000010f78000000eb00300f9800e7
:10254c001e0890000000e000230032002e009000d6
:10255c00900078000e0890000080ea0080806000f7
:10256c002e009000010878001b0037003e089000f8
:10257c000000e00003003a00ce009000010f78004c
:10258c00150037001e0890000000e0000300320028
:10259c001e0090000080a000100798002e089000ec
:1025ac000000e000030032001e00900000a0a0001c
:1025bc00100798008e0890001e009000810070009b
:1025cc002e0090000080e8003e0990004e0d0700a0
:1025dc000000eb00000f7800ef0307006007980085
:1025ec003e0890000000e000240032006e009000d5
:1025fc000000e00003003a00262c0200000000005e
:10260c0000000000cb100700000f78000020200015
:10261c001e0060000000e00016003a009210070057
:10262c002e009000100f78002e0990008e0890005c
:10263c001e0078001f0e07000000e0000a003200a8
:10264c001e0890000000e000070032002e009000f1
:10265c00900078000e0890000080ea0080806000f6
:10266c002e00900001087800551007000000eb00c8
:10267c0030079800f00f20001e0f60001e0078003d
:08268c000080fa0000000600c6
:020000040000fa
:102694000a00fa00200798003107980042079800c2
:1026a400ae0090001107980011028000f0f12f0095
:1026b400008060000050a0001002880000000000ac
:1026c400000000001e009000600890000000e00080
:1026d40016003a004e0090000000e0000c003200aa
:1026e4001e00900072004000800078004e009000b0
:1026f400a10c070011028000f0f12f00008060009f
:102704001002880000000000c0ff2f004b003700bb
:1027140011028000f0f12f00008060001002880098
:10272400000000000000eb004400370011028000ac
:10273400f0f12f000080600010028800000000000b
:1027440011028000f0f12f00008060000050a00012
:102754001002880000000000000000001e0090002d
:10276400600890000000e0002c0032001e00900081
:10277400b00090001e009000001090008080400087
:102784001e009000310098001e009000b0009000e0
:102794001e00900010009000808f5000040039004b
:1027a4001e009000900078001e00900031009800f8
:1027b4001e009000600890008000e9001e00900058
:1027c400610898001e009000801090001e00900088
:1027d4003000900001017800800078003e009000f5
:1027e400e5f7070010002000000f78001e0090009d
:1027f400400090000000e0000a0032001e0090003b
:1028040068004000910d07000000e0000500320060
:10281400b0ff2f00000f7800020037000000eb002b
:10282400000f780011028000f0f12f00008060009a
:1028340010028800000000001e0078000080fa00ea
:04284400000006008a
:020000040000fa
:102848000c00fa0040079800510798000000eb00c0
:10285800000f78005e009000e30f50000200360081
:102868003000200050079800001007004e0090002c
:102878000000e00002003a0030408000010037000c
:102888004e009000100798001e00900080109000e5
:1028980021079800ae0090005e009000808f5000e5
:1028a80051003200de0090002e009000808f500012
:1028b8000c003600304080009e009000808f500051
:1028c8000e00320030408000b00890005e0090009a
:1028d800808f500009003e0010002000000f780093
:1028e80006003700304080009e009000808f500026
:1028f80002003a0010002000000f78001e0090002f
:10290800b0089000310798001e00900080109000d9
:102918001e00900030089000808f500003003a009d
:102928001e009000de009000310898001e00900004
:10293800de009000011098001e00900060009000da
:102948000000e000040035005e009000e400100084
:102958001e009000610098001e0090005001900039
:102968003e0090006a00b9008000780080ca21000b
:1029780000804000800f510015003a001e009000b2
:102988000080e800d70b07001e009000b0089000f8
:1029980080408000808f5000030036001e009000a9
:1029a80030089000804088001e0090000081e800f8
:1029b8001e009000300890006a00b900800078007e
:1029c80080ca210000804000820078008f0c070038
:1029d8001e007800e10f500003003a00262c020088
:1029e8000000000000000000760f07000080fa00d9
:0429f80000000600d5
:020000040000fa
:1029fc001000fa0020079800310798004207980051
:102a0c00530798006407980075079800960f070005
:102a1c003040800040109000e20f50003100320036
:102a2c003440800024119000b41190002e009000ce
:102a3c00be0090000080ea008180ea0082027800eb
:102a4c000301780080017800010078008382620025
:102a5c00000061008000eb00c000dd0000002000e1
:102a6c000001be006128b800000171008181710075
:102a7c002212980033129800304080001100200080
:102a8c00411098007e0090000000e000150032001c
:102a9c00304080000080e800910b07007e00900021
:102aac00e10f400006003a00304080000080e80052
:102abc0080007800c0da2100530c070006003700b4
:102acc00714080007e00900000804000100798004c
:102adc001e009000640d0700262c02000000000070
:102aec0000000000360f07005f0f07006e0090001b
:102afc000000e0000500320030408000b010900073
:102b0c00201090006e0190000089be0030408000c3
:102b1c0040109000e10f500003003a000000eb0061
:102b2c00000f78001800370034408000241190000a
:102b3c00b41190004e009000de0090000080ea007e
:102b4c008180ea008202780003017800800178001d
:102b5c000100780083826200000061008000eb00bd
:102b6c00c000dd00000020000001be006128b8009c
:102b7c0000017100818171002212980033129800bb
:102b8c0010002000000f7800304080008000eb0027
:102b9c00411098000a0f07001e0078000080fa0010
:042bac00000006001f
:020000040000fa
:102bb0001600fa00100f9800210f98000000eb009b
:102bc000100798009e089000310798000000eb0065
:102bd000200798003e0090000080e8004007980021
:102be0004e00900064004000500798002f1007002e
:102bf0004e009000b0009000010f78003e00900061
:102c0000900078002e089000810070003e00900037
:102c1000010878003b0037001e007800900090000b
:102c2000610798001e0078009000780071079800f6
:102c30000000eb0020079800fe00900000f02f003d
:102c400000806000000f9800fe009000f00f200050
:102c500000806000700798008e08900000402000ff
:102c6000008060000000e00009003a003e00900093
:102c7000900078007e009000008060000000e0007e
:102c80000c003200100020002007980009003700d7
:102c90003e009000900078007e00900080806000f0
:102ca0007e009000808f500002003a00100020004b
:102cb000200798002e0090000000e0000f00320076
:102cc0008e08900000102000008060000000e000ee
:102cd000040032009e0090007e0090000100700011
:102ce000100798003e009000100078000090a000af
:102cf000800078001e00780094090700ee00900024
:102d0000010f78005e0090009e007800808f5000d8
:102d1000c1ff3a003e009000900078001e00900035
:102d20000080ea00808060003e009000010878008a
:102d30001c0207003e009000100078000080fa009e
:042d40000000060089
:020000040000fa
:102d44000800fa001007980021079800320798003d
:102d54000000eb00000f78001e00900000109000af
:102d64000000e0000c003a001e0090001000780003
:102d74000000e0004d003a001e009000100090009a
:102d8400ee060700000f78001e0090008000eb00a4
:102d940011009800450037003e0090000000e0005c
:102da40019003a001e009000801090001e00900050
:102db4002000900001017800ae0090006ef607003c
:102dc4001e009000a00090001e00900000109000d3
:102dd400808040001e009000210098001e0090009a
:102de400a00090001e00900010009000808f500002
:102df4002e0039001e009000900078001e00900004
:102e040021009800290037001e00900080109000d7
:102e14001e0090003000900001017800ae00900088
:102e240055f607001e009000b00090001e009000b0
:102e3400001090000000ea00808040001e00900016
:102e4400310098001e009000b00090001e00900019
:102e540010007800808f5000080031001e009000a0
:102e6400900090001e009000001090000000ea0006
:102e7400808040001e009000310098003e009000c9
:102e8400e20f500009003a001e0090006008900014
:102e94000000e000050032001e0090006008900071
:102ea4008000e9001e009000610898001e00900058
:102eb400600890008000e8001e00900061089800ff
:0c2ec4001e0078000080fa0000000600ec
:020000040000fa
:102ed0001200fa00500798006107980072079800e6
:102ee000030f9800de009000110798000000eb002f
:102ef000200798006d0f07001e00900090007800da
:102f000031079800ee0090005e00900028ff070057
:102f1000be0090006e009000810070007e00900066
:102f2000808060007e009000808f50000d003a008d
:102f3000be0090006e009000008f70001e00900098
:102f4000900078007e0090000080ea0080806000a1
:102f50001e009000010878000000eb00000f9800b0
:102f60000f0037000e0890000000e0000a00320059
:102f7000fe00900000502000810070001e009000b4
:102f80000080e8000e099000e20a07000000eb0054
:102f9000000f7800020037001e009000100f78002c
:102fa00080010700400798000e0890000000e00034
:102fb000200032004e0090000000e00003003a00c4
:102fc000262c020000000000000000005c0e07003c
:102fd000000f7800002020001e0060000000e000cc
:102fe00012003a00230e07001e009000100f780018
:102ff0007e0090009e0060007e009000808f500058
:1030000007003a001e009000900078007e009000bb
:103010000080ea00808060001e00900001087800b7
:10302000ea0d07001000200020079800f00f200094
:103030001e0f60001e0078000080fa0000000600ed
:020000040000fa
:103040000000fa00250e07000b0f070051090700ca
:1030500010c0b300ef080700804188008003eb0038
:103060000003eb008002eb00140020008001eb0065
:10307000020f20008000eb00a0382300c7fb0700f0
:103080008003eb000003eb008002eb001400200043
:103090008001eb00020f20008000eb00e0552300d0
:1030a000befb07008003eb000003eb008002eb0097
:1030b000140020008001eb00020f20008000eb00d4
:1030c00000572300b5fb07008003eb000003eb0073
:1030d0008002eb00140020008001eb00020f2000b2
:1030e0008000eb0020582300acfb07008003eb00be
:1030f0000003eb008002eb00140020008001eb00d5
:10310000020f20008000eb0040592300a3fb0700c2
:103110008003eb000003eb008002eb0014002000b2
:103120008001eb00020f20008000eb00605a2300ba
:103130009afb07008003eb000003eb008002eb002a
:10314000140020008001eb00020f20008000eb0043
:10315000805b230091fb07008003eb000003eb0082
:103160008002eb00340020008001eb00020f200001
:103170008000eb00a05c230088fb07008003eb00cd
:103180000003eb008002eb00240020008001eb0034
:10319000020f20008000eb00c05d23007ffb0700d2
:0831a000ba0a0700ffff370027
:020000040000fa
:1031a8000400fa009b0e0700514180000100500006
:1031b8006041880049003700404180000000e80075
:1031c80040418800604180000000e90060418800bb
:1031d800404180000000e00039003a0001418000d1
:1031e800010f780010418000004188009e0078009f
:1031f8001141880033003700004180003000900002
:1032080030009000100798001e0090009000900079
:1032180040418000808f50002f003e001102800046
:10322800f0f12f00008060000050a000100288001c
:1032380000000000000000001e0090000080e80070
:10324800a80907001e009000200890000000e00078
:10325800030032001e0090006c004000a109070026
:1032680011028000f0f12f00008060001002880039
:10327800000000001e009000b0089000304180005f
:10328800808f5000030036001e0090003008900028
:10329800304188001e0090000081e8001e00900068
:1032a800300890006a00b9008000780060cf2100e3
:1032b8000080400082007800540a070001003700af
:1032c8000000000000418000100078000000e000cd
:1032d800c9ff3a000100370000000000604180008b
:1032e8000000e000b4ff3a004041800050418800ef
:0832f8000080fa00000006004e
:020000040000fa
:103300000a00fa0020079800310798004207980049
:10331000ae0090001107980011028000f0f12f001c
:10332000008060000050a000100288000000000033
:10333000000000001e009000730c07000000e00079
:10334000160032004e0090000000e0000c00320039
:103350001e00900068004000800078004e00900041
:103360008609070011028000f0f12f000080600044
:103370001002880000000000c0ff2f00330037005b
:1033800011028000f0f12f00008060001002880020
:10339000000000000000eb002c003700110280004c
:1033a000f0f12f0000806000100288000000000093
:1033b00011028000f0f12f00008060000050a0009a
:1033c0001002880000000000000000001e009000b5
:1033d000e00890001e00900070089000808f500060
:1033e000120031000001eb00be0090001e009000b2
:1033f00054fe070010002000000f78001e0090000f
:10340000100890000000e0000a0032001e0090004a
:10341000720040008e0a07000000e0000500320044
:10342000b0ff2f00000f7800020037000000eb0013
:10343000000f780011028000f0f12f000080600082
:1034400010028800000000001e0078000080fa00d2
:043450000000060072
:020000040000fa
:103454000000fa00804180008001eb000081eb0055
:103464008000eb004af907002200200051ae28003a
:10347400a0d02100c0f40700e0c0b3000d0c070089
:103484003268ef000800370032c8bf000000fb00bc
:10349400a1d0210061407800b50b070032c8bf00fd
:1034a4000040e80032e8b70032c8bf000000fb006b
:1034b400a1d02100614078000004e000f2ff3a004e
:1034c40034c8bf00e14f500010003a00b041800002
:1034d4000000e800b0418800b0418000e90f5000ce
:1034e400010034003628ef00b0418000801f7800ce
:1034f40050ad2800801f7800a0d02100acf4070054
:10350400e48757003468ef000900370010c0b300a7
:1035140034e8b700a0022000801f780070ae2800b5
:10352400801f7800a0d02100a1f40700e487570091
:10353400e0c0b300cb0b07003268ef00080037008f
:1035440032c8bf000000fb00a1d021006140780018
:10355400870b070032c8bf000040e80032e8b7001c
:1035640032c8bf000000fb00a1d0210061407800f8
:103574000004e000f2ff3a00804180008001eb008b
:103584000001eb008000eb00f5fa070000902f002b
:1035940051012000a80c07000080fa00000006007a
:020000040000fa
:1035a4000400fa000000eb00000f7800b00c0700e4
:1035b400f04080000000e900f0408800f040800006
:1035c4000000e00041003a00604080000000e0009c
:1035d4003e0032002300370040ed800030009000b0
:1035e400100798001e0090006c004000be08070001
:1035f4001e0090000080e800bb0807001e00900039
:10360400b008900080408000808f50000300360096
:103614001e00900030089000804088001e0090003a
:103624000081e8001e009000300890006a00b90094
:103634008000780080ca2100008040008200780069
:10364400730907001e009000b0089000304080000d
:1036540030089000808f50000200390010002000d4
:10366400b040880010ed80000000e000daff3a006e
:10367400a04080000000e0000c0032000800370089
:1036840026fb07000000e0000200320010002000ca
:10369400b0408800a04080000000e900a0408800fd
:1036a400a04080000000e000f5ff3a00b040800038
:1036b400e10f500005003a0010002000000f7800d0
:1036c400262c020000000000000000003e0c070051
:0c36d4001e0078000080fa0000000600d4
:020000040000fa
:1036e0000a00fa0020079800310798004207980066
:1036f000c001200001080700100798001e0090007c
:103700000000e0003c003200204180000000e000aa
:1037100003003a009e009000214188006f0a0700d4
:103720003e009000e10f5000020036001000200023
:10373000300798001e0090008000eb0051089800b0
:103740001e009000be009000310898001e009000fe
:10375000ce009000410898001e009000ae0090003e
:10376000010878001e0090000080e8003b0d070073
:103770001e0090006c004000380d07001e009000f5
:103780009e009000410098001e0090009e00900056
:10379000110898003e009000e20010001e0090000a
:1037a000610098001e009000b00890003041800039
:1037b000808f5000030036001e00900030089000fb
:1037c000304188001e0090000081e8001e0090003b
:1037d000300890006a00b9008000780060cf2100b6
:1037e00000804000820078000a09070010002000d5
:1037f000000f7800020037000080eb00000f780017
:0c3800001e0078000080fa0000000600a6
:020000040000fa
:10380c002a00fa00201798003117980042179800e8
:10381c00e400470082a928000f000900b2187800c4
:10382c00be109000110798002e1090001e01900001
:10383c00020878002e1090000080e80020179800f5
:10384c002e1090008000eb00010878002e109000e4
:10385c000080e800201798002e1090008000eb00ec
:10386c00010878002e1090000080e80020179800c6
:10387c00ce1090002e109000010878002e109000b1
:10388c000080e800201798000000eb00000f780083
:10389c000a0037001e0078000000400000004700be
:1038ac00a00090002e109000010878002e109000bf
:1038bc000080e800201798001e0fe8001e0078001a
:1038cc00ef0f5000f3ff3600210280002e10900005
:1038dc00010878002e1090000080e8002017980056
:1038ec0034c0bf008080fb002e10900001087800cf
:1038fc002e1090000080e800201798002e109000e9
:10390c008000eb00010878002e1090000080e80089
:10391c00201798002e1090000080fa00000006007e
:020000040000fa
:10392c000000fa00804180008001eb000081eb0078
:10393c008000eb0014f80700430b07003200200056
:10394c0021ad2800c0d1210089f307000040eb0015
:10395c00d60a07005268ef000800370052c8bf00b3
:10396c000000fb00c1d12100614078007e0a0700f5
:10397c0052c8bf000040e80052e8b70052c8bf0070
:10398c000000fb00c1d12100614078000004e00080
:10399c00f2ff3a0054c8bf000000fb00801f780003
:1039ac0050ad2800801f7800c0d121007ef30700a5
:1039bc00e48757000040eb00a80a07005268ef00ac
:1039cc000800370052c8bf000000fb00c1d1210025
:1039dc0061407800640a070052c8bf000040e8004c
:1039ec0052e8b70052c8bf000000fb00c1d1210053
:1039fc00614078000004e000f2ff3a008041800052
:103a0c008001eb000001eb008000eb00d2f9070015
:103a1c0000402c0091002000850b070054c8bf000b
:103a2c000040e80054e8b70054c8bf00e94f50000c
:103a3c00010034005468ef000080fa00000006001a
:020000040000fa
:103a4c000000fa00804180008001eb000081eb0057
:103a5c008000eb00ccf70700fb0a070032002000c7
:103a6c0081ad2800e0d7210041f3070020c0b3004e
:103a7c008e0a07004e68ef00080037004ec8bf00e2
:103a8c000000fb00e1d7210061407800360a0700f6
:103a9c004ec8bf000040e8004ee8b7004ec8bf005b
:103aac000000fb00e1d72100614078000004e00039
:103abc00f2ff3a0050c8bf000000fb00801f7800e6
:103acc0050ad2800801f7800e0d7210036f30700a6
:103adc00e487570020c0b300600a07004e68ef006f
:103aec00080037004ec8bf000000fb00e1d72100e2
:103afc00614078001c0a07004ec8bf000040e80077
:103b0c004ee8b7004ec8bf000000fb00e1d7210013
:103b1c00614078000004e000f2ff3a008041800030
:103b2c008001eb000001eb008000eb008af907003c
:103b3c0000402c00910020003d0b070050c8bf0036
:103b4c000040e80050e8b70050c8bf00e94f5000f3
:103b5c00010034005068ef000080fa0000000600fd
:020000040000fa
:103b6c000000fa00804180008001eb000081eb0036
:103b7c008000eb0084f70700b30a07002200200046
:103b8c00b1ad2800e0d62100f9f2070040c0b30027
:103b9c00460a07004a68ef00080037004ac8bf0011
:103bac000000fb00e1d6210061407800ee0907001f
:103bbc004ac8bf000040e8004ae8b7004ac8bf0046
:103bcc000000fb00e1d62100614078000004e00019
:103bdc00f2ff3a004cc8bf000000fb00801f7800c9
:103bec0050ad2800801f7800e0d62100eef20700cf
:103bfc00e487570040c0b300180a07004a68ef007a
:103c0c00080037004ac8bf000000fb00e1d62100c5
:103c1c0061407800d40907004ac8bf000040e800a2
:103c2c004ae8b7004ac8bf000000fb00e1d62100fb
:103c3c00614078000004e000f2ff3a00804180000f
:103c4c008001eb000001eb008000eb0042f9070063
:103c5c0000402c0091002000f50a07004cc8bf0062
:103c6c000040e8004ce8b7004cc8bf00e94f5000da
:103c7c00010034004c68ef000080fa0000000600e0
:020000040000fa
:103c8c000000fa00804180008001eb000081eb0015
:103c9c008000eb003cf707006b0a070022002000b5
:103cac00d1ad2800e0d52100b1f2070060c0b3000f
:103cbc00fe0907004668ef000800370046c8bf0041
:103ccc000000fb00e1d5210061407800a609070047
:103cdc0046c8bf000040e80046e8b70046c8bf0031
:103cec000000fb00e1d52100614078000004e000f9
:103cfc00f2ff3a0048c8bf000000fb00801f7800ac
:103d0c0050ad2800801f7800e0d52100a6f20700f6
:103d1c00e487570060c0b300d00907004668ef0085
:103d2c000800370046c8bf000000fb00e1d52100a9
:103d3c00614078008c09070046c8bf000040e800cd
:103d4c0046e8b70046c8bf000000fb00e1d52100e3
:103d5c00614078000004e000f2ff3a0080418000ee
:103d6c008001eb000001eb008000eb00faf807008b
:103d7c0000402c0091002000ad0a070048c8bf008d
:103d8c000040e80048e8b70048c8bf00e94f5000c1
:103d9c00010034004868ef000080fa0000000600c3
:020000040000fa
:103dac000000fa00804180008001eb000081eb00f4
:103dbc008000eb00f4f60700230a07002200200025
:103dcc00f1ad2800e0d4210069f2070080c0b300f7
:103ddc00b60907004268ef000800370042c8bf0070
:103dec000000fb00e1d42100614078005e0907006f
:103dfc0042c8bf000040e80042e8b70042c8bf001c
:103e0c000000fb00e1d42100614078000004e000d8
:103e1c00f2ff3a0044c8bf000000fb00801f78008e
:103e2c0050ad2800801f7800e0d421005ef207001e
:103e3c00e487570080c0b300880907004268ef0090
:103e4c000800370042c8bf000000fb00e1d421008d
:103e5c00614078004409070042c8bf000040e800f8
:103e6c0042e8b70042c8bf000000fb00e1d42100cb
:103e7c00614078000004e000f2ff3a0080418000cd
:103e8c008001eb000001eb008000eb00b2f80700b2
:103e9c0000402c0091002000650a070044c8bf00b8
:103eac000040e80044e8b70044c8bf00e94f5000a8
:103ebc00010034004468ef000080fa0000000600a6
:020000040000fa
:103ecc000000fa00804180008001eb000081eb00d3
:103edc008000eb00acf60700db0907002200200095
:103eec0011ae2800e0d3210021f20700a0c0b300de
:103efc006e0907003e68ef00080037003ec8bf009f
:103f0c000000fb00e1d32100614078001609070096
:103f1c003ec8bf000040e8003ee8b7003ec8bf0006
:103f2c000000fb00e1d32100614078000004e000b8
:103f3c00f2ff3a0040c8bf000000fb00801f780071
:103f4c0050ad2800801f7800e0d3210016f2070046
:103f5c00e4875700a0c0b300400907003e68ef009b
:103f6c00080037003ec8bf000000fb00e1d3210071
:103f7c0061407800fc0807003ec8bf000040e80024
:103f8c003ee8b7003ec8bf000000fb00e1d32100b3
:103f9c00614078000004e000f2ff3a0080418000ac
:103fac008001eb000001eb008000eb006af80700d9
:103fbc0000402c00910020001d0a070040c8bf00e3
:103fcc000040e80040e8b70040c8bf00e94f50008f
:103fdc00010034004068ef000080fa000000060089
:020000040000fa
:103fec000000fa00804180008001eb000081eb00b2
:103ffc008000eb0064f60700930907002200200004
:10400c0031ae2800e0d22100d9f10700c0c0b300c6
:10401c00260907003a68ef00080037003ac8bf00cd
:10402c000000fb00e1d2210061407800ce080700bf
:10403c003ac8bf000040e8003ae8b7003ac8bf00f1
:10404c000000fb00e1d22100614078000004e00098
:10405c00f2ff3a003cc8bf000000fb00801f780054
:10406c0050ad2800801f7800e0d22100cef107006f
:10407c00e4875700c0c0b300f80807003a68ef00a7
:10408c00080037003ac8bf000000fb00e1d2210055
:10409c0061407800b40807003ac8bf000040e8004f
:1040ac003ae8b7003ac8bf000000fb00e1d221009b
:1040bc00614078000004e000f2ff3a00804180008b
:1040cc008001eb000001eb008000eb0022f8070000
:1040dc0000402c0091002000d50907003cc8bf000f
:1040ec000040e8003ce8b7003cc8bf00e94f500076
:1040fc00010034003c68ef000080fa00000006006c
:020000040000fa
:10410c000a00fa003007980041079800d60907000a
:10411c0030408000b010900020109000e00f500054
:10412c00e08f58001a003a00304080001100200047
:10413c00411098004e0090000000e0001400320086
:10414c00304080000080e800e50507004e0090003c
:10415c00e10f400006003a00304080000080e8008b
:10416c0080007800c0da2100a706070005003700a0
:10417c00714080004e009000008f40001e007800bf
:10418c00b9070700262c0200000000000000000008
:10419c008b090700b4090700304080002011900003
:1041ac00b011900012079800230798001e00900091
:1041bc00ae009000e00f5000e08f58000f0032006e
:1041cc003e0090000000e00005003200324080000c
:1041dc006000b800201198003111980007003700da
:1041ec003240800022109000b2109000610050000c
:1041fc00e080580020119800311198003040800068
:10420c008000eb00411098006d0907001e00900023
:0c421c00ae0090000080fa0000000600d8
:020000040000fa
:104228000c00fa0010079800210798003207980040
:1042380043079800540798000000eb00000f78002f
:104248000d0037002e0090001e00400090407800be
:104258001e0090001e0040007a00400001487800cf
:104268002e0090001e004000104078000004e0007e
:10427800050032001e0fe8001e007800e30f500012
:10428800f0ff360001003700000000001e0090001b
:104298008040eb00515898003e009000e30f50001a
:1042a8000200360030002000300798001e00900001
:1042b800be009000310898001e009000be009000db
:1042c800011098001e0090008000eb00111098006b
:1042d8001e0090000080e8005e0a07001e009000a3
:1042e8006c0040005b0a07001e0090009e009000d2
:1042f800410098003e009000e40010001e0090006d
:10430800610098001e0090009e009000110898001f
:104318001e0190006000b80020119800311198002b
:104328001e0090008000eb00411098000080fa0009
:04433800000006007b
:020000040000fa
:10433c000600fa0010079800210798009e009000d4
:10434c00010f7800480907001e0078001001780062
:10435c001e007800f00890001e00780000109000fd
:10436c000088b90000007800800041001e00780031
:10437c00110098001e0078008000eb006108980086
:10438c001e007800900078001e0078002100980034
:10439c001e007800100178001e0078007008900054
:1043ac008000e9001e007800001090000088b90021
:1043bc0000007800800041001e0078003100980059
:1043cc001e0078008080eb00111098001e00780011
:1043dc008080eb00211098002e0090000000e0007f
:1043ec000d003a001e007800400090000000e00034
:1043fc000f0032009e00780068804000f901070031
:10440c00e10f50000a003a00262c020000000000c8
:10441c0000000000060037009e0078006880400015
:10442c00450707009e007800728040004207070095
:10443c00e3080700100020000080fa0000000600ce
:020000040000fa
:10444c000a00fa003007980041079800be0090005f
:10445c00010f78000000eb00100798001e00780098
:10446c00c0109000210798001e0078002100200049
:10447c00411098001e007800b010900020109000a1
:10448c0061004000e08048001e0178002011980077
:10449c00311198002e009000e10f500028003a00d6
:1044ac00f04080000000e00014003a001e80e8009c
:1044bc000b0507001e007800b008900080408000bb
:1044cc00808f5000030036001e00780030089000ea
:1044dc00804088001e81e8001e00780030089000a3
:1044ec006a00b9008000780080ca2100008040007a
:1044fc0082007800c4050700050037009e00780094
:10450c006c8040008000780020da2100be05070096
:10451c001e007800b00890003040800030089000f9
:10452c00808f5000060036004e0090000000e00026
:10453c00030032004e0090001100200001087800aa
:08454c000080fa0000000600e7
:020000040000fa
:104554000a00fa00200798003107980042079800e3
:10456400ae009000110798001e00900060089000b3
:104574000000e000310032001e009000b000900006
:104584001e00900000109000808040001e009000eb
:10459400310098001e009000b00090001e009000b2
:1045a40010009000808f5000040039001e0090001d
:1045b400900078001e009000310098001e009000ca
:1045c400600890008000e9001e00900061089800d7
:1045d4001e009000801090001e009000300090009b
:1045e40001017800800078003e00900062f007002e
:1045f4004e009000100078000000e0000c003a002b
:104604001e009000400090000000e000080032000e
:104614001e009000680040000c0607000000e00047
:10462400030032004e0090001100200001087800c1
:1046340010002000000f7800020037000000eb009b
:10464400000f78001e0078000080fa0000000600c9
:020000040000fa
:104654000400fa00f04080000000e0000300320093
:1046640010002000b0408800360037001628ef0004
:104674003040800070089000000f78009e007800a1
:10468400748f500042012000d1ab28001e00780036
:1046940020f007000000e0000800320030408000f5
:1046a400fa004000304080009c09070003003700f6
:1046b400804080000000e900804088008040800045
:1046c4006a00b9008000780080ca210000804000a0
:1046d400100078000000e000f5ff32008040800008
:1046e4006a00b9008000780080ca21000080400080
:1046f400100798001e009000100090009000900099
:104704001e009000110098001e0090009000900080
:104714001e00900064004000808f500005003a00a5
:104724001e00900010009000900090001e00900069
:10473400110098001e0090001000900030009000be
:0c474400304088000080fa0000000600f1
:020000040000fa
:104750000c00fa0040079800510798000000eb0099
:10476000000f780051090700714080001107980080
:104770004e009000900078005e00900000804000a5
:10478000200798004e009000900078001e009000d6
:10479000808f50000c0036004e0090009000780092
:1047a0002e009000808f500012003600ae00900066
:1047b0001e009000808f50000e0036001000200078
:1047c000000f78000b0037004e009000900078003a
:1047d0002e009000808f500004003e00ae0090003c
:1047e0001e009000808f5000020036001000200054
:1047f000000f78004e009000ae0090000108780095
:104800001e0078000000e00005003200304080000b
:104810000080e800350407002e0090001506070010
:1048200060fb0700300798003e0090000000e000a9
:1048300003003a00262c02000000000000000000e7
:084840000080fa0000000600f0
:020000040000fa
:104848000400fa00100798009e009000010f7800fd
:104858001e0090000000e000350032001e007800c5
:10486800b00890003040800030089000808f5000e1
:104878002f0031001e007800600090000000e0006a
:10488800050035003040800030089000e40010003a
:104898001e007800610098001e007800500190000a
:1048a8001e007800300890006a00b9008000780087
:1048b80080ca210000804000800f510018003a0093
:1048c8001e80e8000704070030408000b008900010
:1048d8001e007800310898001e007800b00890008b
:1048e80080408000808f5000030036001e00780052
:1048f80030089000804088001e81e8001e00780083
:10490800300890006a00b9008000780080ca210051
:104918000080400082007800bc04070004003700d3
:1049280030408000b00890001e00780031089800e0
:084938000080fa0000000600f7
:020000040000fa
:104940000600fa0020079800ae00900011079800ba
:104950000000eb00000f78002e0090000000e00047
:104960002f0032001e009000101090008000e9001f
:104970001e009000111098001e009000b0089000da
:104980001e00900000109000808f50002400320024
:104990001e009000101090000000e00020003a007f
:1049a0001e0090000080e800d00307001e00900069
:1049b000801090001e009000310898001e009000aa
:1049c00030089000e40010001e0090006100980084
:1049d0001e009000b008900080408000808f500042
:1049e000030036001e0090003008900080408800d0
:1049f0001e0090000081e8001e009000300890002a
:104a00006a00b9008000780080ca21000080400060
:104a1000820078007f04070010002000000f78005b
:0c4a20001e0078000080fa000000060074
:020000040000fa
:104a2c000200fa00000f78008f0707000f00370014
:104a3c001e007800100890000000e000100032000a
:104a4c009e00780072804000660007000000e000c5
:104a5c00010032009e0807001e0078002010900014
:104a6c008000e9001e007800211098001e007800dc
:104a7c00201090000000e000edff3c00010037002a
:104a8c00000000001e0078008080eb0021109800d0
:104a9c004b070700740707000f0037001e00780053
:104aac00400090000000e000100032009e007800f2
:104abc00688040004b0007000000e000010032005d
:104acc00830807001e007800101090008000e90099
:104adc001e007800111098001e0078001010900035
:104aec000000e000edff3c0001003700000000007a
:104afc001e0078008080eb00111098003007070032
:084b0c000080fa000000060021
:020000040000fa
:104b14000e00fa00300798004107980052079800e9
:104b240063079800be009000110798000000eb0096
:104b3400200798001e009000e00890001e009000de
:104b440070089000808f5000030039006e009000c0
:104b5400e20f500020003a006e019000ce00900059
:104b64001e00900076f807001e00900020109000b0
:104b7400e10f400010003a001e0090001008900061
:104b84000000e000110032001e009000720040009e
:104b9400160007000000e0000c0032005e009000e8
:104ba4000000e000090032005e00900011002000c7
:104bb40001087800050037001e00900020109000c6
:104bc4008000e8001e0090002110980010002000d2
:104bd400000f7800020037000000eb00000f78009f
:0c4be4001e0078000080fa0000000600af
:020000040000fa
:104bf0000600fa00200798002e0090003000900078
:104c000030009000100798001e0090006c004000db
:104c100036030700f04080000000e00016003a0074
:104c20001e0090000080e800300307001e00900086
:104c3000b008900080408000808f50000300360054
:104c40001e00900030089000804088001e009000f8
:104c50000081e8001e009000300890006a00b90052
:104c60008000780080ca2100008040008200780027
:104c7000e8030700050037001e0090006c004000ac
:104c80008000780020da2100e20307001e00900077
:104c9000b00890003040800030089000808f5000b5
:104ca0000500360010002000000f780010002000e2
:104cb000b0408800020037000000eb00000f7800d1
:0c4cc0001e0078000080fa0000000600d2
:020000040000fa
:104ccc000800fa002007980031079800e606070054
:104cdc0071408000110798003e0090001000780091
:104cec00e10f400003003a000000eb00000f7800d9
:104cfc00250037002e00900090007800c040800006
:104d0c00808f5000080032002e0090009000900020
:104d1c001e009000808f500003003e001000200009
:104d2c00000f7800180037002e0090001000900043
:104d3c009e009000808050003e0090001000780093
:104d4c00808f50000e0031003e00900090007800e3
:104d5c002e009000100190001e00900000005100e9
:104d6c00808040003e009000010878002e009000ea
:104d7c00280707000000eb00000f78000200370046
:104d8c0010002000000f78008d0607001e00780030
:084d9c000080fa00000006008f
:020000040000fa
:104da4000200fa0028020700fef807000600370098
:104db400304180000000e0002c00320030418000cf
:104dc4000000e90030418800304180006a00b900e9
:104dd4008000780060cf210000804000100078003f
:104de4000000e000f2ff3200304180006a00b900a8
:104df4008000780060cf2100008f40001e00780002
:104e040010009000900090001e007800110098009f
:104e14001e007800900090001e017800640041009c
:104e2400808f500005003a001e00780010009000aa
:104e3400900090001e007800110098001e00780079
:104e44001000900030009000204188002041800034
:104e54001001780020418000c008900020418000ab
:104e64000200010000000000010037000000000003
:084e74000080fa0000000600b6
:020000040000fa
:104e7c000c00fa0030079800410798005207980080
:104e8c00be009000110798000000eb00200798006e
:104e9c001e009000600890000000e000240032002a
:104eac00ce0090001e009000d40207001e0090005f
:104ebc00600890008000e9001e00900061089800d6
:104ecc001e00900010109000e10f400010003a00fe
:104edc001e009000400090000000e0001100320025
:104eec001e009000680040003eff07000000e0003c
:104efc000c0032005e0090000000e000090032005f
:104f0c005e009000110020000108780005003700b9
:104f1c001e009000101090008000e8001e00900011
:104f2c001110980010002000000f780002003700cc
:104f3c000000eb00000f78001e0078000080fa00e3
:044f4c00000006005b
:020000040000fa
:104f50000800fa00300798000000eb00000f78000e
:104f6000be009000110798000000eb002007980099
:104f70001e0090008c040700e10f500026003a004c
:104f8000f04080000000e0001e003a001e0090008b
:104f9000b00890003040800030089000808f5000b2
:104fa0000200390010002000000f78001e00900061
:104fb0000080e8004d0207001e009000b00890003d
:104fc00080408000808f5000030036001e0090005b
:104fd00030089000804088001e0090000081e800aa
:104fe0001e009000300890006a00b9008000780030
:104ff00080ca21000080400082007800050307007d
:10500000050037001e0090006c0040008000780012
:1050100020da2100ff0207001e0078000080fa005d
:045020000000060086
:020000040000fa
:105024000a00fa003007980041079800be0090007b
:10503400110798000000eb00200798001e00900064
:10504400e00890001e00900070089000808f5000cf
:10505400210031001e009000600890008000e800ec
:105064001e009000610898001e009000201090001f
:10507400e10f400010003a001e009000100890005c
:105084000000e000110032001e0090007200400099
:10509400d6fe07000000e0000c0032004e00900035
:1050a4000000e000090032004e00900011002000d2
:1050b40001087800050037001e00900020109000c1
:1050c4008000e8001e0090002110980010002000cd
:1050d400000f7800020037000000eb00000f78009a
:0c50e4001e0078000080fa0000000600aa
:020000040000fa
:1050f0000400fa0010079800de0507001e0090006b
:105100000000e00002003a0030408000010037005b
:105110001e009000000f78001e80e800f3010700d9
:105120001e007800200890000000e000030032001c
:105130009e0078006c804000ec0107001e80e800b3
:1051400080007800c0da2100b20207009f05070046
:10515000304080009e007800808f50000f003a00a1
:10516000904080000000e00004003200262c020085
:1051700000000000000000000e00370061ed80001c
:1051800060408000808f500002003a000628ef0047
:10519000080037002ffd0700060037009040800010
:1051a0000000e00003003200b2050700e804070039
:0c51b000860507000080fa0000000600e1
:020000040000fa
:1051bc000800fa0020079800310798003e00900084
:1051cc0090007800110798001e009000e10f40003d
:1051dc0004003a002e009000c0009000010f7800ef
:1051ec000d0037002e00900064004000000f780086
:1051fc00030037001e00780090009000010f78002b
:10520c001e00780010009000900078001e009000a6
:10521c00808f5000f7ff36001e0078009000900041
:10522c003e009000110098003e009000100090008d
:10523c00be009000210098003e0090009e00780077
:10524c00210098001e007800be009000110098000c
:10525c003e009000ae009000410098002e0090009f
:10526c00100078008000e8002e0090000108780003
:08527c000080fa0000000600aa
:020000040000fa
:105284000c00fa003007980041079800224f98005c
:105294000000eb00100798004e0090000000e000b2
:1052a40003003a000000eb00000f7800050037000f
:1052b400be0090004e0090000088b9000000780005
:1052c400000fe800610220001e8040000a01070070
:1052d400200798002e0090000000e0001700320024
:1052e4004e0090000000e00004003a00ae00900080
:1052f4002e00900001087800050037002e00900071
:1053040061022000808040002e0090000108780097
:105314002e009000be009000710898002e009000ae
:10532400ce00900001109800110020002e00900083
:1053340001fc0700ae009000110798001e009000c9
:085344000080fa0000000600e1
:020000040000fa
:10534c000800fa002007980031079800be00900072
:10535c0000002800810070002e00900001087800e9
:10536c002e00900030009000100798002e00900046
:10537c005b0107001e0090000080e8005801070048
:10538c001e009000b008900080408000808f50007c
:10539c00030036001e00900030089000804088000a
:1053ac001e0090000081e8001e0090003008900064
:1053bc006a00b9008000780080ca2100008040009b
:1053cc0082007800100207001e009000b0089000c8
:1053dc003040800030089000808f5000050036006f
:1053ec0010002000000f780010002000b040880052
:1053fc00020037000000eb00000f78001e00780060
:08540c000080fa000000060018
:020000040000fa
:105414000400fa002047980060022000b60007004c
:10542400000f78001e0078000000e0002600320023
:105434001e0078008000eb00110098001e00780028
:105444008000eb00010878001e0078008000eb006b
:10545400210098001e0078008000eb0031009800c5
:105464001e0078008000eb00610898001e007800a0
:1054740011002000710898001e0078008000eb00e5
:10548400011098001e0078008080eb001110980035
:105494001e0078008080eb00211098009e007800a8
:1054a40068804000260307009e0078007280400058
:1054b400230307008001eb000001eb008000eb00f8
:1054c4001e00780026f307001e0078000080fa0012
:0454d40000000600ce
:020000040000fa
:1054d8000400fa00100798009e009000010f780061
:1054e8001e0078000000e0002600320030408000f6
:1054f8009e007800808f500022003200db040700f5
:105508001e00780026030700e10f50001c003a0037
:105518001e80e800f30007001e007800b008900025
:1055280080408000808f5000030036001e00780005
:1055380030089000804088001e81e8001e00780036
:10554800300890006a00b9008000780080ca210005
:105558000080400082007800ac0107001e0078003f
:10556800b00890003040800030089000808f5000d4
:1055780003003900262c0200000000000000000093
:0c558800900407000080fa0000000600fc
:020000040000fa
:105594000000fa004b03070000cc2500704188008e
:1055a400704180003b050700406a2000704188007c
:1055b40080032000403088007041800035050700da
:1055c40000cc25007041880070418000310507003f
:1055d400406a200070418800c000200040308800ec
:1055e400704180002b05070000cc25007041880025
:1055f4007041800027050700007d2000704188006d
:105604001000200040308800704180002105070010
:1056140000cc250070418800704180001d05070002
:10562400007d200070418800600020004030880028
:10563400704180001705070025040700f4030700e4
:085644000080fa0000000600de
:020000040000fa
:10564c000200fa002500370011028000f0f12f0053
:10565c00008060000050a0001002880000000000d4
:10566c000000000080ee800030009000000f7800f9
:10567c009e0078006c8040009900070011028000a9
:10568c00f0f12f0000806000100288000000000084
:10569c001e80e800920007001e007800b008900001
:1056ac0030418000808f5000030036001e007800cf
:1056bc0030089000304188001e81e8001e00780000
:1056cc00300890006a00b9008000780060cf21009b
:1056dc0000804000820078004b01070050ee8000f3
:1056ec000000e000d8ff3a000080fa00000006003d
:020000040000fa
:1056fc000400fa00100798000000eb00000f78007f
:10570c001e00900061006000004078000004e00082
:10571c00040032001e0090000000a1000080e80090
:10572c00100798005e050700104080000000e000a4
:10573c0003003a00808520000000a1001040880082
:10574c00014080001e00900080804000d03f21006e
:10575c00808f50000d003e00014080001e00900024
:10576c008080400000408000808f50000700360091
:10577c001140800000408000008f400001408000fc
:10578c001e009000008040000040880082f7070057
:0c579c001e0078000080fa0000000600eb
:020000040000fa
:1057a8000600fa001007980021079800a0022000c0
:1057b800d0ff0700000f78001e0078000000e0000e
:1057c800120032002e0090000000e00004003a00b1
:1057d8001e00900000004000c6ff070001003700cf
:1057e8002e0090009e007800c00898001e007800e7
:1057f800400890000000e00004003a001e00780015
:10580800390507000000eb00000f78001e00780043
:105818000000e000080032001e0090000000400078
:10582800800078001e007800400890000101780090
:10583800510a2000d6eb07001e0078000080fa000d
:045848000000060056
:020000040000fa
:10584c004200f800801f780000022000100288003f
:10585c00811f7800829fbe00849fbe00869fbe0081
:10586c00889fbe008a9fbe008c9fbe008e1f780052
:10587c003600f8003200f8004400f8003400f8005c
:10588c0020408000801f7800304080000f08780096
:10589c002a230200000000003040800090077800ae
:1058ac004f007800204088003400f9004400f900d3
:1058bc003200f9003600f9004f0778004f06be00a1
:1058cc004f05be004f04be004f03be004f02be008a
:1058dc004f01be004f00be004200f9000000060060
:020000040000fa
:1058ec000400fa00100798001e0090004000900081
:1058fc00000f78001e009000100090009e00900099
:10590c00a1009000210098001e0090002000900043
